{
  "contractName": "OracleTest",
  "abi": [
    {
      "inputs": [],
      "payable": true,
      "stateMutability": "payable",
      "type": "constructor"
    },
    {
      "constant": false,
      "inputs": [
        {
          "internalType": "uint256",
          "name": "time",
          "type": "uint256"
        }
      ],
      "name": "setTime",
      "outputs": [],
      "payable": false,
      "stateMutability": "nonpayable",
      "type": "function"
    },
    {
      "constant": false,
      "inputs": [
        {
          "internalType": "uint256",
          "name": "price",
          "type": "uint256"
        }
      ],
      "name": "setPrice",
      "outputs": [],
      "payable": false,
      "stateMutability": "nonpayable",
      "type": "function"
    },
    {
      "constant": false,
      "inputs": [
        {
          "internalType": "bool",
          "name": "cons",
          "type": "bool"
        }
      ],
      "name": "setConditionState",
      "outputs": [],
      "payable": false,
      "stateMutability": "nonpayable",
      "type": "function"
    },
    {
      "constant": true,
      "inputs": [],
      "name": "getTime",
      "outputs": [
        {
          "internalType": "uint256",
          "name": "",
          "type": "uint256"
        }
      ],
      "payable": false,
      "stateMutability": "view",
      "type": "function"
    },
    {
      "constant": true,
      "inputs": [],
      "name": "getPrice",
      "outputs": [
        {
          "internalType": "uint256",
          "name": "",
          "type": "uint256"
        }
      ],
      "payable": false,
      "stateMutability": "view",
      "type": "function"
    },
    {
      "constant": true,
      "inputs": [],
      "name": "getConditionState",
      "outputs": [
        {
          "internalType": "bool",
          "name": "",
          "type": "bool"
        }
      ],
      "payable": false,
      "stateMutability": "view",
      "type": "function"
    }
  ],
  "bytecode": "0x60806040526000808190555060006001819055506000600260006101000a81548160ff0219169083151502179055506101e18061003d6000396000f3fe608060405234801561001057600080fd5b50600436106100625760003560e01c80633beb26c414610067578063557ed1ba1461009557806391b7f5ed146100b357806398d5fdca146100e1578063c9a3636b146100ff578063e3b9d2151461012f575b600080fd5b6100936004803603602081101561007d57600080fd5b8101908080359060200190929190505050610151565b005b61009d61015b565b6040518082815260200191505060405180910390f35b6100df600480360360208110156100c957600080fd5b8101908080359060200190929190505050610164565b005b6100e961016e565b6040518082815260200191505060405180910390f35b61012d6004803603602081101561011557600080fd5b81019080803515159060200190929190505050610178565b005b610137610195565b604051808215151515815260200191505060405180910390f35b8060008190555050565b60008054905090565b8060018190555050565b6000600154905090565b80600260006101000a81548160ff02191690831515021790555050565b6000600260009054906101000a900460ff1690509056fea265627a7a723158200029f551893272819852cab45efa4c5f450b8af3c662bc5fe47901de4461589264736f6c63430005100032",
  "source": "pragma solidity 0.5.16;\n\ncontract OracleTest {\n    uint currentTime;\n    uint256 currentPrice;\n    bool conditionState;\n\n    constructor() public payable {\n        currentTime = 0;\n        currentPrice = 0;\n        conditionState = false;\n    }\n\n    function setTime(uint time) public {\n        currentTime = time;\n    }\n\n    function setPrice(uint256 price) public {\n        currentPrice = price;\n    }\n\n    function setConditionState(bool cons) public {\n        conditionState = cons;\n    }\n\n    function getTime() public view returns(uint) {\n        return currentTime;\n    }\n\n    function getPrice() public view returns(uint256) {\n        return currentPrice;\n    }\n\n    function getConditionState() public view returns(bool) {\n        return conditionState;\n    }\n}",
  "sourcePath": "/home/ubuntu/projects/smartcontract/SmartContractEvaluation/metacoin-box/contracts/OracleTest.sol",
  "compiler": {
    "name": "solc",
    "version": "0.5.16+commit.9c3226ce.Emscripten.clang"
  },
  "schemaVersion": "3.4.3",
  "updatedAt": "2021-09-19T10:02:58.561Z",
  "devdoc": {
    "methods": {}
  },
  "userdoc": {
    "methods": {}
  }
}