{
  "contractName": "PurchaseAgreement",
  "abi": [
    {
      "inputs": [],
      "payable": true,
      "stateMutability": "payable",
      "type": "constructor"
    },
    {
      "anonymous": false,
      "inputs": [],
      "name": "Closed",
      "type": "event"
    },
    {
      "anonymous": false,
      "inputs": [
        {
          "indexed": false,
          "internalType": "uint256",
          "name": "paymentIndex",
          "type": "uint256"
        }
      ],
      "name": "Payed",
      "type": "event"
    },
    {
      "anonymous": false,
      "inputs": [
        {
          "indexed": false,
          "internalType": "uint256",
          "name": "paymentIndex",
          "type": "uint256"
        }
      ],
      "name": "Released",
      "type": "event"
    },
    {
      "anonymous": false,
      "inputs": [
        {
          "indexed": false,
          "internalType": "uint256",
          "name": "buyerIndex",
          "type": "uint256"
        }
      ],
      "name": "Terminated",
      "type": "event"
    },
    {
      "anonymous": false,
      "inputs": [],
      "name": "TerminatedByOthers",
      "type": "event"
    },
    {
      "anonymous": false,
      "inputs": [],
      "name": "TerminatedByOutOfDate",
      "type": "event"
    },
    {
      "constant": true,
      "inputs": [],
      "name": "CloseTime",
      "outputs": [
        {
          "internalType": "uint256",
          "name": "",
          "type": "uint256"
        }
      ],
      "payable": false,
      "stateMutability": "view",
      "type": "function"
    },
    {
      "constant": true,
      "inputs": [],
      "name": "EffectiveTime",
      "outputs": [
        {
          "internalType": "uint256",
          "name": "",
          "type": "uint256"
        }
      ],
      "payable": false,
      "stateMutability": "view",
      "type": "function"
    },
    {
      "constant": true,
      "inputs": [],
      "name": "OutSideClosingDate",
      "outputs": [
        {
          "internalType": "uint256",
          "name": "",
          "type": "uint256"
        }
      ],
      "payable": false,
      "stateMutability": "view",
      "type": "function"
    },
    {
      "constant": true,
      "inputs": [
        {
          "internalType": "uint256",
          "name": "",
          "type": "uint256"
        }
      ],
      "name": "buyer",
      "outputs": [
        {
          "internalType": "address payable",
          "name": "",
          "type": "address"
        }
      ],
      "payable": false,
      "stateMutability": "view",
      "type": "function"
    },
    {
      "constant": true,
      "inputs": [
        {
          "internalType": "uint256",
          "name": "",
          "type": "uint256"
        }
      ],
      "name": "buyerName",
      "outputs": [
        {
          "internalType": "string",
          "name": "",
          "type": "string"
        }
      ],
      "payable": false,
      "stateMutability": "view",
      "type": "function"
    },
    {
      "constant": true,
      "inputs": [
        {
          "internalType": "uint256",
          "name": "",
          "type": "uint256"
        }
      ],
      "name": "pricePayedByBuyer",
      "outputs": [
        {
          "internalType": "uint256",
          "name": "",
          "type": "uint256"
        }
      ],
      "payable": false,
      "stateMutability": "view",
      "type": "function"
    },
    {
      "constant": true,
      "inputs": [
        {
          "internalType": "uint256",
          "name": "",
          "type": "uint256"
        }
      ],
      "name": "purchaseBuyerConfirmed",
      "outputs": [
        {
          "internalType": "bool",
          "name": "",
          "type": "bool"
        }
      ],
      "payable": false,
      "stateMutability": "view",
      "type": "function"
    },
    {
      "constant": true,
      "inputs": [
        {
          "internalType": "uint256",
          "name": "",
          "type": "uint256"
        }
      ],
      "name": "purchaseSellerConfirmed",
      "outputs": [
        {
          "internalType": "bool",
          "name": "",
          "type": "bool"
        }
      ],
      "payable": false,
      "stateMutability": "view",
      "type": "function"
    },
    {
      "constant": true,
      "inputs": [],
      "name": "seller",
      "outputs": [
        {
          "internalType": "address payable",
          "name": "",
          "type": "address"
        }
      ],
      "payable": false,
      "stateMutability": "view",
      "type": "function"
    },
    {
      "constant": true,
      "inputs": [],
      "name": "sellerName",
      "outputs": [
        {
          "internalType": "string",
          "name": "",
          "type": "string"
        }
      ],
      "payable": false,
      "stateMutability": "view",
      "type": "function"
    },
    {
      "constant": true,
      "inputs": [
        {
          "internalType": "uint256",
          "name": "",
          "type": "uint256"
        }
      ],
      "name": "state",
      "outputs": [
        {
          "internalType": "enum PurchaseAgreement.State",
          "name": "",
          "type": "uint8"
        }
      ],
      "payable": false,
      "stateMutability": "view",
      "type": "function"
    },
    {
      "constant": true,
      "inputs": [
        {
          "internalType": "uint256",
          "name": "",
          "type": "uint256"
        }
      ],
      "name": "terminateBuyerConfirmed",
      "outputs": [
        {
          "internalType": "bool",
          "name": "",
          "type": "bool"
        }
      ],
      "payable": false,
      "stateMutability": "view",
      "type": "function"
    },
    {
      "constant": true,
      "inputs": [
        {
          "internalType": "uint256",
          "name": "",
          "type": "uint256"
        }
      ],
      "name": "terminateSellerConfirmed",
      "outputs": [
        {
          "internalType": "bool",
          "name": "",
          "type": "bool"
        }
      ],
      "payable": false,
      "stateMutability": "view",
      "type": "function"
    },
    {
      "constant": false,
      "inputs": [],
      "name": "pay_0",
      "outputs": [],
      "payable": true,
      "stateMutability": "payable",
      "type": "function"
    },
    {
      "constant": false,
      "inputs": [
        {
          "internalType": "uint32",
          "name": "buyerIndex",
          "type": "uint32"
        }
      ],
      "name": "purchaseConfirm",
      "outputs": [],
      "payable": false,
      "stateMutability": "nonpayable",
      "type": "function"
    },
    {
      "constant": false,
      "inputs": [],
      "name": "payRelease_0",
      "outputs": [],
      "payable": false,
      "stateMutability": "nonpayable",
      "type": "function"
    },
    {
      "constant": false,
      "inputs": [
        {
          "internalType": "string",
          "name": "fileName",
          "type": "string"
        },
        {
          "internalType": "uint32",
          "name": "hashCode",
          "type": "uint32"
        }
      ],
      "name": "uploadFileHash",
      "outputs": [],
      "payable": false,
      "stateMutability": "nonpayable",
      "type": "function"
    },
    {
      "constant": false,
      "inputs": [
        {
          "internalType": "uint32",
          "name": "buyerIndex",
          "type": "uint32"
        }
      ],
      "name": "terminateConfirm",
      "outputs": [],
      "payable": false,
      "stateMutability": "nonpayable",
      "type": "function"
    },
    {
      "constant": false,
      "inputs": [
        {
          "internalType": "uint256",
          "name": "buyerIndex",
          "type": "uint256"
        }
      ],
      "name": "terminateByTransfer",
      "outputs": [],
      "payable": false,
      "stateMutability": "nonpayable",
      "type": "function"
    },
    {
      "constant": false,
      "inputs": [],
      "name": "terminateByOutOfDate",
      "outputs": [],
      "payable": false,
      "stateMutability": "nonpayable",
      "type": "function"
    },
    {
      "constant": false,
      "inputs": [],
      "name": "terminateByOthers",
      "outputs": [],
      "payable": false,
      "stateMutability": "nonpayable",
      "type": "function"
    },
    {
      "constant": false,
      "inputs": [],
      "name": "close",
      "outputs": [],
      "payable": false,
      "stateMutability": "nonpayable",
      "type": "function"
    },
    {
      "constant": false,
      "inputs": [
        {
          "internalType": "address payable",
          "name": "addr",
          "type": "address"
        }
      ],
      "name": "setOracleAddress",
      "outputs": [],
      "payable": false,
      "stateMutability": "nonpayable",
      "type": "function"
    },
    {
      "constant": false,
      "inputs": [
        {
          "internalType": "address payable",
          "name": "addr",
          "type": "address"
        }
      ],
      "name": "setSellerAddress",
      "outputs": [],
      "payable": false,
      "stateMutability": "nonpayable",
      "type": "function"
    },
    {
      "constant": false,
      "inputs": [
        {
          "internalType": "address payable[]",
          "name": "addrs",
          "type": "address[]"
        }
      ],
      "name": "setBuyerAddress",
      "outputs": [],
      "payable": false,
      "stateMutability": "nonpayable",
      "type": "function"
    },
    {
      "constant": false,
      "inputs": [
        {
          "internalType": "string",
          "name": "fileName",
          "type": "string"
        }
      ],
      "name": "getFileHash",
      "outputs": [
        {
          "internalType": "uint32",
          "name": "",
          "type": "uint32"
        }
      ],
      "payable": false,
      "stateMutability": "nonpayable",
      "type": "function"
    }
  ],
  "bytecode": "0x60806040526360859200600581905550633b9aca0060068190555063610422006007819055506040518060400160405280601b81526020017f42524f4f4b4c594e20494d4d554e4f5448455241504555544943530000000000815250600390805190602001906200007292919062000160565b5060008060006101000a81548173ffffffffffffffffffffffffffffffffffffffff021916908373ffffffffffffffffffffffffffffffffffffffff16021790555060405180602001604052806040518060400160405280601b81526020017f42524f4f4b4c594e20494d4d554e4f544845524150455554494353000000000081525081525060049060016200010a929190620001e7565b506040518060200160405280600073ffffffffffffffffffffffffffffffffffffffff1673ffffffffffffffffffffffffffffffffffffffff168152506001906001620001599291906200024e565b506200044f565b828054600181600116156101000203166002900490600052602060002090601f016020900481019282601f10620001a357805160ff1916838001178555620001d4565b82800160010185558215620001d4579182015b82811115620001d3578251825591602001919060010190620001b6565b5b509050620001e39190620002dd565b5090565b8280548282559060005260206000209081019282156200023b579160200282015b828111156200023a5782518290805190602001906200022992919062000305565b509160200191906001019062000208565b5b5090506200024a91906200038c565b5090565b828054828255906000526020600020908101928215620002ca579160200282015b82811115620002c95782518260006101000a81548173ffffffffffffffffffffffffffffffffffffffff021916908373ffffffffffffffffffffffffffffffffffffffff160217905550916020019190600101906200026f565b5b509050620002d99190620003bd565b5090565b6200030291905b80821115620002fe576000816000905550600101620002e4565b5090565b90565b828054600181600116156101000203166002900490600052602060002090601f016020900481019282601f106200034857805160ff191683800117855562000379565b8280016001018555821562000379579182015b82811115620003785782518255916020019190600101906200035b565b5b509050620003889190620002dd565b5090565b620003ba91905b80821115620003b65760008181620003ac919062000403565b5060010162000393565b5090565b90565b6200040091905b80821115620003fc57600081816101000a81549073ffffffffffffffffffffffffffffffffffffffff021916905550600101620003c4565b5090565b90565b50805460018160011615610100020316600290046000825580601f106200042b57506200044c565b601f0160209004906000526020600020908101906200044b9190620002dd565b5b50565b6121d5806200045f6000396000f3fe6080604052600436106101815760003560e01c80636688c7c6116100d1578063a613f4851161008a578063d7adff5e11610064578063d7adff5e1461085d578063dd9a203914610874578063ef3a2a721461094c578063f880680b1461097757610181565b8063a613f4851461073f578063aaebeb7a146107f3578063d02eed5b1461084657610181565b80636688c7c61461055e5780636b64351d146105ee578063798014411461062f5780637c4be6961461065a5780638178fefb1461069b578063a12df12e146106ee57610181565b806343d726d61161013e5780634dd4acaf116101185780634dd4acaf146103a05780634f27bb091461041b578063535d18c314610446578063652915791461049957610181565b806343d726d6146103215780634b9f476a146103385780634c69c00f1461034f57610181565b806303323cf41461018657806308551a53146101d95780631224c7ed1461023057806312ff64ef1461023a5780633996a615146102895780633e4f49e6146102c4575b600080fd5b34801561019257600080fd5b506101bf600480360360208110156101a957600080fd5b8101908080359060200190929190505050610a5f565b604051808215151515815260200191505060405180910390f35b3480156101e557600080fd5b506101ee610a86565b604051808273ffffffffffffffffffffffffffffffffffffffff1673ffffffffffffffffffffffffffffffffffffffff16815260200191505060405180910390f35b610238610aab565b005b34801561024657600080fd5b506102736004803603602081101561025d57600080fd5b8101908080359060200190929190505050610db5565b6040518082815260200191505060405180910390f35b34801561029557600080fd5b506102c2600480360360208110156102ac57600080fd5b8101908080359060200190929190505050610dcd565b005b3480156102d057600080fd5b506102fd600480360360208110156102e757600080fd5b81019080803590602001909291905050506110e6565b6040518082600481111561030d57fe5b60ff16815260200191505060405180910390f35b34801561032d57600080fd5b5061033661110d565b005b34801561034457600080fd5b5061034d611250565b005b34801561035b57600080fd5b5061039e6004803603602081101561037257600080fd5b81019080803573ffffffffffffffffffffffffffffffffffffffff1690602001909291905050506114cf565b005b3480156103ac57600080fd5b506103d9600480360360208110156103c357600080fd5b8101908080359060200190929190505050611513565b604051808273ffffffffffffffffffffffffffffffffffffffff1673ffffffffffffffffffffffffffffffffffffffff16815260200191505060405180910390f35b34801561042757600080fd5b5061043061154f565b6040518082815260200191505060405180910390f35b34801561045257600080fd5b5061047f6004803603602081101561046957600080fd5b8101908080359060200190929190505050611555565b604051808215151515815260200191505060405180910390f35b3480156104a557600080fd5b5061055c600480360360208110156104bc57600080fd5b81019080803590602001906401000000008111156104d957600080fd5b8201836020820111156104eb57600080fd5b8035906020019184602083028401116401000000008311171561050d57600080fd5b919080806020026020016040519081016040528093929190818152602001838360200280828437600081840152601f19601f82011690508083019250505050505050919291929050505061157c565b005b34801561056a57600080fd5b50610573611596565b6040518080602001828103825283818151815260200191508051906020019080838360005b838110156105b3578082015181840152602081019050610598565b50505050905090810190601f1680156105e05780820380516001836020036101000a031916815260200191505b509250505060405180910390f35b3480156105fa57600080fd5b5061062d6004803603602081101561061157600080fd5b81019080803563ffffffff169060200190929190505050611634565b005b34801561063b57600080fd5b506106446117a4565b6040518082815260200191505060405180910390f35b34801561066657600080fd5b506106996004803603602081101561067d57600080fd5b81019080803563ffffffff1690602001909291905050506117aa565b005b3480156106a757600080fd5b506106d4600480360360208110156106be57600080fd5b810190808035906020019092919050505061191a565b604051808215151515815260200191505060405180910390f35b3480156106fa57600080fd5b5061073d6004803603602081101561071157600080fd5b81019080803573ffffffffffffffffffffffffffffffffffffffff169060200190929190505050611941565b005b34801561074b57600080fd5b506107786004803603602081101561076257600080fd5b8101908080359060200190929190505050611984565b6040518080602001828103825283818151815260200191508051906020019080838360005b838110156107b857808201518184015260208101905061079d565b50505050905090810190601f1680156107e55780820380516001836020036101000a031916815260200191505b509250505060405180910390f35b3480156107ff57600080fd5b5061082c6004803603602081101561081657600080fd5b8101908080359060200190929190505050611a3d565b604051808215151515815260200191505060405180910390f35b34801561085257600080fd5b5061085b611a64565b005b34801561086957600080fd5b50610872611ce5565b005b34801561088057600080fd5b5061094a6004803603604081101561089757600080fd5b81019080803590602001906401000000008111156108b457600080fd5b8201836020820111156108c657600080fd5b803590602001918460018302840111640100000000831117156108e857600080fd5b91908080601f016020809104026020016040519081016040528093929190818152602001838380828437600081840152601f19601f820116905080830192505050505050509192919290803563ffffffff169060200190929190505050611eb4565b005b34801561095857600080fd5b5061096161204a565b6040518082815260200191505060405180910390f35b34801561098357600080fd5b50610a3d6004803603602081101561099a57600080fd5b81019080803590602001906401000000008111156109b757600080fd5b8201836020820111156109c957600080fd5b803590602001918460018302840111640100000000831117156109eb57600080fd5b91908080601f016020809104026020016040519081016040528093929190818152602001838380828437600081840152601f19601f820116905080830192505050505050509192919290505050612050565b604051808263ffffffff1663ffffffff16815260200191505060405180910390f35b600c8160018110610a6c57fe5b60209182820401919006915054906101000a900460ff1681565b6000809054906101000a900473ffffffffffffffffffffffffffffffffffffffff1681565b60006004811115610ab857fe5b600e600060018110610ac657fe5b602091828204019190069054906101000a900460ff166004811115610ae757fe5b1480610b2c575060016004811115610afb57fe5b600e600060018110610b0957fe5b602091828204019190069054906101000a900460ff166004811115610b2a57fe5b145b610b3557600080fd5b6001600081548110610b4357fe5b9060005260206000200160009054906101000a900473ffffffffffffffffffffffffffffffffffffffff1673ffffffffffffffffffffffffffffffffffffffff163373ffffffffffffffffffffffffffffffffffffffff1614610ba557600080fd5b6000600260009054906101000a900473ffffffffffffffffffffffffffffffffffffffff1673ffffffffffffffffffffffffffffffffffffffff1663557ed1ba6040518163ffffffff1660e01b815260040160206040518083038186803b158015610c0f57600080fd5b505afa158015610c23573d6000803e3d6000fd5b505050506040513d6020811015610c3957600080fd5b81019080805190602001909291905050509050600654811115610c5b57600080fd5b60006301312d0090506000600260009054906101000a900473ffffffffffffffffffffffffffffffffffffffff1673ffffffffffffffffffffffffffffffffffffffff166398d5fdca6040518163ffffffff1660e01b815260040160206040518083038186803b158015610cce57600080fd5b505afa158015610ce2573d6000803e3d6000fd5b505050506040513d6020811015610cf857600080fd5b81019080805190602001909291905050509050808281610d1457fe5b049150813414610d2357600080fd5b7f39af4195e7b857617d2a021fa1e924b3694ed3278711a1b9db011d998c41a2bf60006040518082815260200191505060405180910390a1816008600060018110610d6a57fe5b01600082825401925050819055506001600e600060018110610d8857fe5b602091828204019190066101000a81548160ff02191690836004811115610dab57fe5b0217905550505050565b60088160018110610dc257fe5b016000915090505481565b60008090506000809054906101000a900473ffffffffffffffffffffffffffffffffffffffff1673ffffffffffffffffffffffffffffffffffffffff163373ffffffffffffffffffffffffffffffffffffffff161415610e305760019050610ecf565b6000600480549050905060008090505b81811015610ecc5760018181548110610e5557fe5b9060005260206000200160009054906101000a900473ffffffffffffffffffffffffffffffffffffffff1673ffffffffffffffffffffffffffffffffffffffff163373ffffffffffffffffffffffffffffffffffffffff161415610ebf5760019250809350610ecc565b8080600101915050610e40565b50505b80610ed957600080fd5b6000600260009054906101000a900473ffffffffffffffffffffffffffffffffffffffff1673ffffffffffffffffffffffffffffffffffffffff1663557ed1ba6040518163ffffffff1660e01b815260040160206040518083038186803b158015610f4357600080fd5b505afa158015610f57573d6000803e3d6000fd5b505050506040513d6020811015610f6d57600080fd5b81019080805190602001909291905050509050600654811115610f8f57600080fd5b600c8360018110610f9c57fe5b602091828204019190069054906101000a900460ff16610fbb57600080fd5b600d8360018110610fc857fe5b602091828204019190069054906101000a900460ff16610fe757600080fd5b7f9a9cad27a1bdce3d7cb0602aaf727dfaad03ba6524d9bca7b9615867fa6802b4836040518082815260200191505060405180910390a16004600e846001811061102d57fe5b602091828204019190066101000a81548160ff0219169083600481111561105057fe5b02179055506001838154811061106257fe5b9060005260206000200160009054906101000a900473ffffffffffffffffffffffffffffffffffffffff1673ffffffffffffffffffffffffffffffffffffffff166108fc600885600181106110b357fe5b01549081150290604051600060405180830381858888f193505050501580156110e0573d6000803e3d6000fd5b50505050565b600e81600181106110f357fe5b60209182820401919006915054906101000a900460ff1681565b6000600260009054906101000a900473ffffffffffffffffffffffffffffffffffffffff1673ffffffffffffffffffffffffffffffffffffffff1663557ed1ba6040518163ffffffff1660e01b815260040160206040518083038186803b15801561117757600080fd5b505afa15801561118b573d6000803e3d6000fd5b505050506040513d60208110156111a157600080fd5b810190808051906020019092919050505090506006548111156111c357600080fd5b7f1cdde67b72a90f19919ac732a437ac2f7a10fc128d28c2a6e525d89ce5cd9d3a60405160405180910390a16000600480549050905060008090505b8181101561124b576004600e826001811061121657fe5b602091828204019190066101000a81548160ff0219169083600481111561123957fe5b021790555080806001019150506111ff565b505050565b600160008154811061125e57fe5b9060005260206000200160009054906101000a900473ffffffffffffffffffffffffffffffffffffffff1673ffffffffffffffffffffffffffffffffffffffff163373ffffffffffffffffffffffffffffffffffffffff16146112c057600080fd5b6000600260009054906101000a900473ffffffffffffffffffffffffffffffffffffffff1673ffffffffffffffffffffffffffffffffffffffff1663557ed1ba6040518163ffffffff1660e01b815260040160206040518083038186803b15801561132a57600080fd5b505afa15801561133e573d6000803e3d6000fd5b505050506040513d602081101561135457600080fd5b8101908080519060200190929190505050905060065481111561137657600080fd5b600a60006001811061138457fe5b602091828204019190069054906101000a900460ff166113a357600080fd5b60096000600181106113b157fe5b602091828204019190069054906101000a900460ff166113d057600080fd5b7ffb81f9b30d73d830c3544b34d827c08142579ee75710b490bab0b3995468c56560006040518082815260200191505060405180910390a16002600e60006001811061141857fe5b602091828204019190066101000a81548160ff0219169083600481111561143b57fe5b02179055506000809054906101000a900473ffffffffffffffffffffffffffffffffffffffff1673ffffffffffffffffffffffffffffffffffffffff166108fc600860006001811061148957fe5b01549081150290604051600060405180830381858888f193505050501580156114b6573d6000803e3d6000fd5b50600060086000600181106114c757fe5b018190555050565b80600260006101000a81548173ffffffffffffffffffffffffffffffffffffffff021916908373ffffffffffffffffffffffffffffffffffffffff16021790555050565b6001818154811061152057fe5b906000526020600020016000915054906101000a900473ffffffffffffffffffffffffffffffffffffffff1681565b60055481565b600d816001811061156257fe5b60209182820401919006915054906101000a900460ff1681565b80600190805190602001906115929291906120d3565b5050565b60038054600181600116156101000203166002900480601f01602080910402602001604051908101604052809291908181526020018280546001816001161561010002031660029004801561162c5780601f106116015761010080835404028352916020019161162c565b820191906000526020600020905b81548152906001019060200180831161160f57829003601f168201915b505050505081565b6001805490508163ffffffff161061164b57600080fd5b6000809054906101000a900473ffffffffffffffffffffffffffffffffffffffff1673ffffffffffffffffffffffffffffffffffffffff163373ffffffffffffffffffffffffffffffffffffffff1614156116d9576001600c8263ffffffff16600181106116b557fe5b602091828204019190066101000a81548160ff0219169083151502179055506117a1565b6000600480549050905060008090505b8181101561179e57600181815481106116fe57fe5b9060005260206000200160009054906101000a900473ffffffffffffffffffffffffffffffffffffffff1673ffffffffffffffffffffffffffffffffffffffff163373ffffffffffffffffffffffffffffffffffffffff161415611791576001600d826001811061176b57fe5b602091828204019190066101000a81548160ff02191690831515021790555050506117a1565b80806001019150506116e9565b50505b50565b60065481565b6001805490508163ffffffff16106117c157600080fd5b6000809054906101000a900473ffffffffffffffffffffffffffffffffffffffff1673ffffffffffffffffffffffffffffffffffffffff163373ffffffffffffffffffffffffffffffffffffffff16141561184f57600160098263ffffffff166001811061182b57fe5b602091828204019190066101000a81548160ff021916908315150217905550611917565b6000600480549050905060008090505b81811015611914576001818154811061187457fe5b9060005260206000200160009054906101000a900473ffffffffffffffffffffffffffffffffffffffff1673ffffffffffffffffffffffffffffffffffffffff163373ffffffffffffffffffffffffffffffffffffffff161415611907576001600a82600181106118e157fe5b602091828204019190066101000a81548160ff0219169083151502179055505050611917565b808060010191505061185f565b50505b50565b6009816001811061192757fe5b60209182820401919006915054906101000a900460ff1681565b806000806101000a81548173ffffffffffffffffffffffffffffffffffffffff021916908373ffffffffffffffffffffffffffffffffffffffff16021790555050565b6004818154811061199157fe5b906000526020600020016000915090508054600181600116156101000203166002900480601f016020809104026020016040519081016040528092919081815260200182805460018160011615610100020316600290048015611a355780601f10611a0a57610100808354040283529160200191611a35565b820191906000526020600020905b815481529060010190602001808311611a1857829003601f168201915b505050505081565b600a8160018110611a4a57fe5b60209182820401919006915054906101000a900460ff1681565b6000600260009054906101000a900473ffffffffffffffffffffffffffffffffffffffff1673ffffffffffffffffffffffffffffffffffffffff1663557ed1ba6040518163ffffffff1660e01b815260040160206040518083038186803b158015611ace57600080fd5b505afa158015611ae2573d6000803e3d6000fd5b505050506040513d6020811015611af857600080fd5b81019080805190602001909291905050509050600654811115611b1a57600080fd5b6000600260009054906101000a900473ffffffffffffffffffffffffffffffffffffffff1673ffffffffffffffffffffffffffffffffffffffff1663e3b9d2156040518163ffffffff1660e01b815260040160206040518083038186803b158015611b8457600080fd5b505afa158015611b98573d6000803e3d6000fd5b505050506040513d6020811015611bae57600080fd5b8101908080519060200190929190505050905080611bcb57600080fd5b7fa45957abbacedaeb9a84b44d606a701bbbcbb331dfb652672f16aa124b971b6e60405160405180910390a16000600480549050905060008090505b81811015611cdf576004600e8260018110611c1e57fe5b602091828204019190066101000a81548160ff02191690836004811115611c4157fe5b021790555060018181548110611c5357fe5b9060005260206000200160009054906101000a900473ffffffffffffffffffffffffffffffffffffffff1673ffffffffffffffffffffffffffffffffffffffff166108fc60088360018110611ca457fe5b01549081150290604051600060405180830381858888f19350505050158015611cd1573d6000803e3d6000fd5b508080600101915050611c07565b50505050565b6000600260009054906101000a900473ffffffffffffffffffffffffffffffffffffffff1673ffffffffffffffffffffffffffffffffffffffff1663557ed1ba6040518163ffffffff1660e01b815260040160206040518083038186803b158015611d4f57600080fd5b505afa158015611d63573d6000803e3d6000fd5b505050506040513d6020811015611d7957600080fd5b81019080805190602001909291905050509050600654811115611d9b57600080fd5b7f973868388330ac1d5054c66dcb90529404fa660ca9388183907fd50ae9008f6960405160405180910390a16000600480549050905060008090505b81811015611eaf576004600e8260018110611dee57fe5b602091828204019190066101000a81548160ff02191690836004811115611e1157fe5b021790555060018181548110611e2357fe5b9060005260206000200160009054906101000a900473ffffffffffffffffffffffffffffffffffffffff1673ffffffffffffffffffffffffffffffffffffffff166108fc60088360018110611e7457fe5b01549081150290604051600060405180830381858888f19350505050158015611ea1573d6000803e3d6000fd5b508080600101915050611dd7565b505050565b60008090506000809054906101000a900473ffffffffffffffffffffffffffffffffffffffff1673ffffffffffffffffffffffffffffffffffffffff163373ffffffffffffffffffffffffffffffffffffffff161415611f175760019050611fb3565b6000600480549050905060008090505b81811015611fb05760018181548110611f3c57fe5b9060005260206000200160009054906101000a900473ffffffffffffffffffffffffffffffffffffffff1673ffffffffffffffffffffffffffffffffffffffff163373ffffffffffffffffffffffffffffffffffffffff161415611fa35760019250611fb0565b8080600101915050611f27565b50505b80611fbd57600080fd5b81600b846040518082805190602001908083835b60208310611ff45780518252602082019150602081019050602083039250611fd1565b6001836020036101000a038019825116818451168082178552505050505050905001915050908152602001604051809103902060006101000a81548163ffffffff021916908363ffffffff160217905550505050565b60075481565b6000600b826040518082805190602001908083835b602083106120885780518252602082019150602081019050602083039250612065565b6001836020036101000a038019825116818451168082178552505050505050905001915050908152602001604051809103902060009054906101000a900463ffffffff169050919050565b82805482825590600052602060002090810192821561214c579160200282015b8281111561214b5782518260006101000a81548173ffffffffffffffffffffffffffffffffffffffff021916908373ffffffffffffffffffffffffffffffffffffffff160217905550916020019190600101906120f3565b5b509050612159919061215d565b5090565b61219d91905b8082111561219957600081816101000a81549073ffffffffffffffffffffffffffffffffffffffff021916905550600101612163565b5090565b9056fea265627a7a72315820be9fd3b13833da89b9a1d791ee582bfa384c373e69f98b1d18794d0c86b92ef064736f6c63430005100032",
  "source": "import \"./OracleTest.sol\";\r\n\r\npragma solidity 0.5.16;\r\ncontract PurchaseAgreement {\r\n    address payable public seller;\r\n    address payable[] public buyer;\r\n    OracleTest internal oracle;\r\n    string public sellerName;\r\n    string[] public buyerName;\r\n    uint public EffectiveTime;\r\n    uint public CloseTime;\r\n    uint public OutSideClosingDate;\r\n    uint[1] public pricePayedByBuyer;\r\n    bool[1] public purchaseSellerConfirmed;\r\n    bool[1] public purchaseBuyerConfirmed;\r\n    mapping(string => uint32) fileHashMap;\r\n    bool[1] public terminateSellerConfirmed;\r\n    bool[1] public terminateBuyerConfirmed;\r\n    enum State {\r\n        Created, Locked, Release, Transfered, Inactive }\r\n    State[1] public state;\r\n    event Payed(uint paymentIndex);\r\n    event Released(uint paymentIndex);\r\n    event Terminated(uint buyerIndex);\r\n    event TerminatedByOutOfDate();\r\n    event TerminatedByOthers();\r\n    event Closed();\r\n    constructor() public payable {\r\n        EffectiveTime = 1619366400;\r\n        CloseTime = 1000000000;\r\n        OutSideClosingDate = 1627660800;\r\n        sellerName = \"BROOKLYN IMMUNOTHERAPEUTICS\";\r\n        seller = address(0);\r\n        buyerName =[\"BROOKLYN IMMUNOTHERAPEUTICS\"];\r\n        buyer =[address(0)];\r\n    }\r\n    function pay_0() public payable {\r\n        require(state[0] == State.Created || state[0] == State.Locked);\r\n        require(msg.sender == buyer[0]);\r\n        uint currentTime = oracle.getTime();\r\n        require(currentTime <= CloseTime);\r\n        uint256 price = 20000000;\r\n        uint256 currentPrice = oracle.getPrice();\r\n        price = price / currentPrice;\r\n        require(msg.value == price);\r\n        emit Payed(0);\r\n        pricePayedByBuyer[0] += price;\r\n        state[0] = State.Locked;\r\n    }\r\n    function purchaseConfirm(uint32 buyerIndex) public {\r\n        require(buyerIndex < buyer.length);\r\n        if(msg.sender == seller) {\r\n            purchaseSellerConfirmed[buyerIndex] = true;\r\n            return;\r\n        }\r\n        uint buyerNum = buyerName.length;\r\n        for(uint i = 0;\r\n        i < buyerNum;\r\n        i ++) {\r\n            if(msg.sender == buyer[i]) {\r\n                purchaseBuyerConfirmed[i] = true;\r\n                return;\r\n            }\r\n        }\r\n    }\r\n    function payRelease_0() public {\r\n        require(msg.sender == buyer[0]);\r\n        uint currentTime = oracle.getTime();\r\n        require(currentTime <= CloseTime);\r\n        require(purchaseBuyerConfirmed[0]);\r\n        require(purchaseSellerConfirmed[0]);\r\n        emit Released(0);\r\n        state[0] = State.Release;\r\n        seller.transfer(pricePayedByBuyer[0]);\r\n        pricePayedByBuyer[0] = 0;\r\n    }\r\n    function uploadFileHash(string memory fileName, uint32 hashCode) public {\r\n        bool validSender = false;\r\n        if(msg.sender == seller) {\r\n            validSender = true;\r\n        }\r\n        else {\r\n            uint buyerNum = buyerName.length;\r\n            for(uint i = 0;\r\n            i < buyerNum;\r\n            i ++) {\r\n                if(msg.sender == buyer[i]) {\r\n                    validSender = true;\r\n                    break;\r\n                }\r\n            }\r\n        }\r\n        require(validSender);\r\n        fileHashMap[fileName] = hashCode;\r\n    }\r\n    function terminateConfirm(uint32 buyerIndex) public {\r\n        require(buyerIndex < buyer.length);\r\n        if(msg.sender == seller) {\r\n            terminateSellerConfirmed[buyerIndex] = true;\r\n            return;\r\n        }\r\n        uint buyerNum = buyerName.length;\r\n        for(uint i = 0;\r\n        i < buyerNum;\r\n        i ++) {\r\n            if(msg.sender == buyer[i]) {\r\n                terminateBuyerConfirmed[i] = true;\r\n                return;\r\n            }\r\n        }\r\n    }\r\n    function terminateByTransfer(uint buyerIndex) public {\r\n        bool validSender = false;\r\n        if(msg.sender == seller) {\r\n            validSender = true;\r\n        }\r\n        else {\r\n            uint buyerNum = buyerName.length;\r\n            for(uint i = 0;\r\n            i < buyerNum;\r\n            i ++) {\r\n                if(msg.sender == buyer[i]) {\r\n                    validSender = true;\r\n                    buyerIndex = i;\r\n                    break;\r\n                }\r\n            }\r\n        }\r\n        require(validSender);\r\n        uint currentTime = oracle.getTime();\r\n        require(currentTime <= CloseTime);\r\n        require(terminateSellerConfirmed[buyerIndex]);\r\n        require(terminateBuyerConfirmed[buyerIndex]);\r\n        emit Terminated(buyerIndex);\r\n        state[buyerIndex] = State.Inactive;\r\n        buyer[buyerIndex].transfer(pricePayedByBuyer[buyerIndex]);\r\n    }\r\n    function terminateByOutOfDate() public {\r\n        uint currentTime = oracle.getTime();\r\n        require(currentTime <= CloseTime);\r\n        emit TerminatedByOutOfDate();\r\n        uint buyerNum = buyerName.length;\r\n        for(uint i = 0;\r\n        i < buyerNum;\r\n        i ++) {\r\n            state[i] = State.Inactive;\r\n            buyer[i].transfer(pricePayedByBuyer[i]);\r\n        }\r\n    }\r\n    function terminateByOthers() public {\r\n        uint currentTime = oracle.getTime();\r\n        require(currentTime <= CloseTime);\r\n        bool conditionState = oracle.getConditionState();\r\n        require(conditionState);\r\n        emit TerminatedByOthers();\r\n        uint buyerNum = buyerName.length;\r\n        for(uint i = 0;\r\n        i < buyerNum;\r\n        i ++) {\r\n            state[i] = State.Inactive;\r\n            buyer[i].transfer(pricePayedByBuyer[i]);\r\n        }\r\n    }\r\n\r\n    function close() public {\r\n        uint currentTime = oracle.getTime();\r\n        require(currentTime <= CloseTime);\r\n        emit Closed();\r\n        uint buyerNum = buyerName.length;\r\n        for(uint i = 0;\r\n        i < buyerNum;\r\n        i ++) {\r\n            state[i] = State.Inactive;\r\n        }\r\n    }\r\n\r\n    function setOracleAddress(address payable addr) public {\r\n        oracle = OracleTest(addr);\r\n    }\r\n\r\n    function setSellerAddress(address payable addr) public {\r\n        seller = addr;\r\n    }\r\n\r\n    function setBuyerAddress(address payable[] memory addrs) public {\r\n        buyer = addrs;\r\n    }\r\n\r\n    function getFileHash(string memory fileName) public returns(uint32) {\r\n        return fileHashMap[fileName];\r\n    }\r\n}\r\n",
  "sourcePath": "/home/ubuntu/projects/smartcontract/SmartContractEvaluation/metacoin-box/contracts/PurchaseAgreementGenerated_1.sol",
  "compiler": {
    "name": "solc",
    "version": "0.5.16+commit.9c3226ce.Emscripten.clang"
  },
  "schemaVersion": "3.4.3",
  "updatedAt": "2021-09-19T10:02:58.568Z",
  "devdoc": {
    "methods": {}
  },
  "userdoc": {
    "methods": {}
  }
}